{
  "_format": "hh-sol-artifact-1",
  "contractName": "CareerFair",
  "sourceName": "contracts/CareerFair.sol",
  "abi": [
    {
      "inputs": [],
      "stateMutability": "nonpayable",
      "type": "constructor"
    },
    {
      "inputs": [
        {
          "internalType": "string",
          "name": "companyName",
          "type": "string"
        }
      ],
      "name": "add",
      "outputs": [],
      "stateMutability": "nonpayable",
      "type": "function"
    },
    {
      "inputs": [],
      "name": "enroll",
      "outputs": [],
      "stateMutability": "nonpayable",
      "type": "function"
    },
    {
      "inputs": [],
      "name": "getAttendees",
      "outputs": [
        {
          "internalType": "address[]",
          "name": "",
          "type": "address[]"
        }
      ],
      "stateMutability": "view",
      "type": "function"
    },
    {
      "inputs": [],
      "name": "numOfStudents",
      "outputs": [
        {
          "internalType": "uint256",
          "name": "",
          "type": "uint256"
        }
      ],
      "stateMutability": "view",
      "type": "function"
    },
    {
      "inputs": [],
      "name": "owner",
      "outputs": [
        {
          "internalType": "address",
          "name": "",
          "type": "address"
        }
      ],
      "stateMutability": "view",
      "type": "function"
    },
    {
      "inputs": [],
      "name": "unenroll",
      "outputs": [],
      "stateMutability": "nonpayable",
      "type": "function"
    }
  ],
  "bytecode": "0x60806040523480156200001157600080fd5b50336000806101000a81548173ffffffffffffffffffffffffffffffffffffffff021916908373ffffffffffffffffffffffffffffffffffffffff1602179055506000600481905550600160026040516200006c906200023c565b908152602001604051809103902060006101000a81548160ff02191690831515021790555060016002604051620000a390620002a3565b908152602001604051809103902060006101000a81548160ff02191690831515021790555060016002604051620000da906200030a565b908152602001604051809103902060006101000a81548160ff02191690831515021790555060016002604051620001119062000371565b908152602001604051809103902060006101000a81548160ff021916908315150217905550600160026040516200014890620003d8565b908152602001604051809103902060006101000a81548160ff021916908315150217905550600160026040516200017f906200043f565b908152602001604051809103902060006101000a81548160ff02191690831515021790555060016002604051620001b690620004a6565b908152602001604051809103902060006101000a81548160ff021916908315150217905550620004bd565b600081905092915050565b7f416d617a6f6e0000000000000000000000000000000000000000000000000000600082015250565b600062000224600683620001e1565b91506200023182620001ec565b600682019050919050565b6000620002498262000215565b9150819050919050565b7f476f6f676c650000000000000000000000000000000000000000000000000000600082015250565b60006200028b600683620001e1565b9150620002988262000253565b600682019050919050565b6000620002b0826200027c565b9150819050919050565b7f4170706c65000000000000000000000000000000000000000000000000000000600082015250565b6000620002f2600583620001e1565b9150620002ff82620002ba565b600582019050919050565b60006200031782620002e3565b9150819050919050565b7f4d6963726f736f66740000000000000000000000000000000000000000000000600082015250565b600062000359600983620001e1565b9150620003668262000321565b600982019050919050565b60006200037e826200034a565b9150819050919050565b7f4d65746100000000000000000000000000000000000000000000000000000000600082015250565b6000620003c0600483620001e1565b9150620003cd8262000388565b600482019050919050565b6000620003e582620003b1565b9150819050919050565b7f47656d696e690000000000000000000000000000000000000000000000000000600082015250565b600062000427600683620001e1565b91506200043482620003ef565b600682019050919050565b60006200044c8262000418565b9150819050919050565b7f5365637572654564000000000000000000000000000000000000000000000000600082015250565b60006200048e600883620001e1565b91506200049b8262000456565b600882019050919050565b6000620004b3826200047f565b9150819050919050565b610e3680620004cd6000396000f3fe608060405234801561001057600080fd5b50600436106100625760003560e01c806320f3b418146100675780634165a1bb146100715780638da5cb5b1461008f5780639a2469c5146100ad578063b0c8f9dc146100cb578063e65f2a7e146100e7575b600080fd5b61006f6100f1565b005b6100796101f8565b604051610086919061082e565b60405180910390f35b610097610286565b6040516100a4919061085f565b60405180910390f35b6100b56102aa565b6040516100c29190610893565b60405180910390f35b6100e560048036038101906100e09190610a08565b6102b0565b005b6100ef6103e4565b005b600160003373ffffffffffffffffffffffffffffffffffffffff1673ffffffffffffffffffffffffffffffffffffffff16815260200190815260200160002060009054906101000a900460ff1661017d576040517f08c379a000000000000000000000000000000000000000000000000000000000815260040161017490610aae565b60405180910390fd5b6000600160003373ffffffffffffffffffffffffffffffffffffffff1673ffffffffffffffffffffffffffffffffffffffff16815260200190815260200160002060006101000a81548160ff021916908315150217905550600460008154809291906101e890610afd565b91905055506101f633610545565b565b6060600380548060200260200160405190810160405280929190818152602001828054801561027c57602002820191906000526020600020905b8160009054906101000a900473ffffffffffffffffffffffffffffffffffffffff1673ffffffffffffffffffffffffffffffffffffffff1681526020019060010190808311610232575b5050505050905090565b60008054906101000a900473ffffffffffffffffffffffffffffffffffffffff1681565b60045481565b60008054906101000a900473ffffffffffffffffffffffffffffffffffffffff1673ffffffffffffffffffffffffffffffffffffffff163373ffffffffffffffffffffffffffffffffffffffff161461033e576040517f08c379a000000000000000000000000000000000000000000000000000000000815260040161033590610b72565b60405180910390fd5b60028160405161034e9190610c03565b908152602001604051809103902060009054906101000a900460ff16156103aa576040517f08c379a00000000000000000000000000000000000000000000000000000000081526004016103a190610c66565b60405180910390fd5b60016002826040516103bc9190610c03565b908152602001604051809103902060006101000a81548160ff02191690831515021790555050565b600160003373ffffffffffffffffffffffffffffffffffffffff1673ffffffffffffffffffffffffffffffffffffffff16815260200190815260200160002060009054906101000a900460ff1615610471576040517f08c379a000000000000000000000000000000000000000000000000000000000815260040161046890610cd2565b60405180910390fd5b60018060003373ffffffffffffffffffffffffffffffffffffffff1673ffffffffffffffffffffffffffffffffffffffff16815260200190815260200160002060006101000a81548160ff0219169083151502179055506003339080600181540180825580915050600190039060005260206000200160009091909190916101000a81548173ffffffffffffffffffffffffffffffffffffffff021916908373ffffffffffffffffffffffffffffffffffffffff1602179055506004600081548092919061053e90610cf2565b9190505550565b60005b60045481101561073a578173ffffffffffffffffffffffffffffffffffffffff166003828154811061057d5761057c610d3a565b5b9060005260206000200160009054906101000a900473ffffffffffffffffffffffffffffffffffffffff1673ffffffffffffffffffffffffffffffffffffffff160361072757600381815481106105d7576105d6610d3a565b5b9060005260206000200160006101000a81549073ffffffffffffffffffffffffffffffffffffffff021916905560008190505b60016004546106199190610d69565b8110156106da57600360018261062f9190610d9d565b815481106106405761063f610d3a565b5b9060005260206000200160009054906101000a900473ffffffffffffffffffffffffffffffffffffffff166003828154811061067f5761067e610d3a565b5b9060005260206000200160006101000a81548173ffffffffffffffffffffffffffffffffffffffff021916908373ffffffffffffffffffffffffffffffffffffffff16021790555080806106d290610cf2565b91505061060a565b5060038054806106ed576106ec610dd1565b5b6001900381819060005260206000200160006101000a81549073ffffffffffffffffffffffffffffffffffffffff0219169055905561073a565b808061073290610cf2565b915050610548565b5050565b600081519050919050565b600082825260208201905092915050565b6000819050602082019050919050565b600073ffffffffffffffffffffffffffffffffffffffff82169050919050565b60006107958261076a565b9050919050565b6107a58161078a565b82525050565b60006107b7838361079c565b60208301905092915050565b6000602082019050919050565b60006107db8261073e565b6107e58185610749565b93506107f08361075a565b8060005b8381101561082157815161080888826107ab565b9750610813836107c3565b9250506001810190506107f4565b5085935050505092915050565b6000602082019050818103600083015261084881846107d0565b905092915050565b6108598161078a565b82525050565b60006020820190506108746000830184610850565b92915050565b6000819050919050565b61088d8161087a565b82525050565b60006020820190506108a86000830184610884565b92915050565b6000604051905090565b600080fd5b600080fd5b600080fd5b600080fd5b6000601f19601f8301169050919050565b7f4e487b7100000000000000000000000000000000000000000000000000000000600052604160045260246000fd5b610915826108cc565b810181811067ffffffffffffffff82111715610934576109336108dd565b5b80604052505050565b60006109476108ae565b9050610953828261090c565b919050565b600067ffffffffffffffff821115610973576109726108dd565b5b61097c826108cc565b9050602081019050919050565b82818337600083830152505050565b60006109ab6109a684610958565b61093d565b9050828152602081018484840111156109c7576109c66108c7565b5b6109d2848285610989565b509392505050565b600082601f8301126109ef576109ee6108c2565b5b81356109ff848260208601610998565b91505092915050565b600060208284031215610a1e57610a1d6108b8565b5b600082013567ffffffffffffffff811115610a3c57610a3b6108bd565b5b610a48848285016109da565b91505092915050565b600082825260208201905092915050565b7f596f7520617265206e6f7420656e726f6c6c65642e0000000000000000000000600082015250565b6000610a98601583610a51565b9150610aa382610a62565b602082019050919050565b60006020820190508181036000830152610ac781610a8b565b9050919050565b7f4e487b7100000000000000000000000000000000000000000000000000000000600052601160045260246000fd5b6000610b088261087a565b915060008203610b1b57610b1a610ace565b5b600182039050919050565b7f596f7520617265206e6f7420746865206f776e65722100000000000000000000600082015250565b6000610b5c601683610a51565b9150610b6782610b26565b602082019050919050565b60006020820190508181036000830152610b8b81610b4f565b9050919050565b600081519050919050565b600081905092915050565b60005b83811015610bc6578082015181840152602081019050610bab565b60008484015250505050565b6000610bdd82610b92565b610be78185610b9d565b9350610bf7818560208601610ba8565b80840191505092915050565b6000610c0f8284610bd2565b915081905092915050565b7f436f6d70616e7920616c72656164792065786973747300000000000000000000600082015250565b6000610c50601683610a51565b9150610c5b82610c1a565b602082019050919050565b60006020820190508181036000830152610c7f81610c43565b9050919050565b7f596f752061726520616c726561647920656e726f6c6c65642e00000000000000600082015250565b6000610cbc601983610a51565b9150610cc782610c86565b602082019050919050565b60006020820190508181036000830152610ceb81610caf565b9050919050565b6000610cfd8261087a565b91507fffffffffffffffffffffffffffffffffffffffffffffffffffffffffffffffff8203610d2f57610d2e610ace565b5b600182019050919050565b7f4e487b7100000000000000000000000000000000000000000000000000000000600052603260045260246000fd5b6000610d748261087a565b9150610d7f8361087a565b9250828203905081811115610d9757610d96610ace565b5b92915050565b6000610da88261087a565b9150610db38361087a565b9250828201905080821115610dcb57610dca610ace565b5b92915050565b7f4e487b7100000000000000000000000000000000000000000000000000000000600052603160045260246000fdfea2646970667358221220fe52a0d47c4a8eb881b5588a92aebfa9bab11fdb75109b7a2f939f1d86245b4764736f6c63430008120033",
  "linkReferences": {},
  "deployedLinkReferences": {}
}